{
  "_format": "hh-sol-artifact-1",
  "contractName": "Twitter",
  "sourceName": "contracts/twitter-q1.sol",
  "abi": [
    {
      "inputs": [],
      "name": "nextTweetId",
      "outputs": [
        {
          "internalType": "uint256",
          "name": "",
          "type": "uint256"
        }
      ],
      "stateMutability": "view",
      "type": "function"
    },
    {
      "inputs": [
        {
          "internalType": "string",
          "name": "_content",
          "type": "string"
        }
      ],
      "name": "postTweet",
      "outputs": [],
      "stateMutability": "nonpayable",
      "type": "function"
    },
    {
      "inputs": [
        {
          "internalType": "address",
          "name": "_user",
          "type": "address"
        }
      ],
      "name": "readTweets",
      "outputs": [
        {
          "components": [
            {
              "internalType": "uint256",
              "name": "tweetId",
              "type": "uint256"
            },
            {
              "internalType": "address",
              "name": "author",
              "type": "address"
            },
            {
              "internalType": "string",
              "name": "content",
              "type": "string"
            },
            {
              "internalType": "uint256",
              "name": "createdAt",
              "type": "uint256"
            }
          ],
          "internalType": "struct Twitter.Tweet[]",
          "name": "",
          "type": "tuple[]"
        }
      ],
      "stateMutability": "view",
      "type": "function"
    },
    {
      "inputs": [
        {
          "internalType": "string",
          "name": "_name",
          "type": "string"
        }
      ],
      "name": "registerAccount",
      "outputs": [],
      "stateMutability": "nonpayable",
      "type": "function"
    },
    {
      "inputs": [
        {
          "internalType": "uint256",
          "name": "",
          "type": "uint256"
        }
      ],
      "name": "tweets",
      "outputs": [
        {
          "internalType": "uint256",
          "name": "tweetId",
          "type": "uint256"
        },
        {
          "internalType": "address",
          "name": "author",
          "type": "address"
        },
        {
          "internalType": "string",
          "name": "content",
          "type": "string"
        },
        {
          "internalType": "uint256",
          "name": "createdAt",
          "type": "uint256"
        }
      ],
      "stateMutability": "view",
      "type": "function"
    },
    {
      "inputs": [
        {
          "internalType": "address",
          "name": "",
          "type": "address"
        }
      ],
      "name": "users",
      "outputs": [
        {
          "internalType": "address",
          "name": "wallet",
          "type": "address"
        },
        {
          "internalType": "string",
          "name": "name",
          "type": "string"
        }
      ],
      "stateMutability": "view",
      "type": "function"
    }
  ],
  "bytecode": "0x608060405234801561001057600080fd5b506112ad806100206000396000f3fe608060405234801561001057600080fd5b50600436106100625760003560e01c80630cbc3dc41461006757806371c85b8d146100835780638076e02b146100b3578063a87430ba146100d1578063bff6de2014610102578063e8d857b01461011e575b600080fd5b610081600480360381019061007c9190610bb4565b610151565b005b61009d60048036038101906100989190610c5f565b610424565b6040516100aa9190610e72565b60405180910390f35b6100bb61069a565b6040516100c89190610ea3565b60405180910390f35b6100eb60048036038101906100e69190610c5f565b6106a0565b6040516100f9929190610f17565b60405180910390f35b61011c60048036038101906101179190610bb4565b61076c565b005b61013860048036038101906101339190610f73565b610908565b6040516101489493929190610fa0565b60405180910390f35b3361015a6109e0565b60025481600001818152505033816020019073ffffffffffffffffffffffffffffffffffffffff16908173ffffffffffffffffffffffffffffffffffffffff168152505083838080601f016020809104026020016040519081016040528093929190818152602001838380828437600081840152601f19601f82011690508083019250505050505050816040018190525042816060018181525050806001600060025481526020019081526020016000206000820151816000015560208201518160010160006101000a81548173ffffffffffffffffffffffffffffffffffffffff021916908373ffffffffffffffffffffffffffffffffffffffff1602179055506040820151816002019080519060200190610278929190610a1e565b50606082015181600301559050506000803373ffffffffffffffffffffffffffffffffffffffff1673ffffffffffffffffffffffffffffffffffffffff1681526020019081526020016000206002016002549080600181540180825580915050600190039060005260206000200160009091909190915055600160026000828254610303919061101b565b925050819055505060008060008373ffffffffffffffffffffffffffffffffffffffff1673ffffffffffffffffffffffffffffffffffffffff1681526020019081526020016000206001018054610359906110a0565b80601f0160208091040260200160405190810160405280929190818152602001828054610385906110a0565b80156103d25780601f106103a7576101008083540402835291602001916103d2565b820191906000526020600020905b8154815290600101906020018083116103b557829003601f168201915b5050505050905060008151141561041e576040517f08c379a000000000000000000000000000000000000000000000000000000000815260040161041590611144565b60405180910390fd5b50505050565b606060008060008473ffffffffffffffffffffffffffffffffffffffff1673ffffffffffffffffffffffffffffffffffffffff1681526020019081526020016000206002018054806020026020016040519081016040528092919081815260200182805480156104b357602002820191906000526020600020905b81548152602001906001019080831161049f575b5050505050905060008151905060008167ffffffffffffffff8111156104dc576104db611164565b5b60405190808252806020026020018201604052801561051557816020015b6105026109e0565b8152602001906001900390816104fa5790505b50905060005b8281101561068e57600084828151811061053857610537611193565b5b6020026020010151905060016000828152602001908152602001600020604051806080016040529081600082015481526020016001820160009054906101000a900473ffffffffffffffffffffffffffffffffffffffff1673ffffffffffffffffffffffffffffffffffffffff1673ffffffffffffffffffffffffffffffffffffffff1681526020016002820180546105d0906110a0565b80601f01602080910402602001604051908101604052809291908181526020018280546105fc906110a0565b80156106495780601f1061061e57610100808354040283529160200191610649565b820191906000526020600020905b81548152906001019060200180831161062c57829003601f168201915b5050505050815260200160038201548152505083838151811061066f5761066e611193565b5b6020026020010181905250508080610686906111c2565b91505061051b565b81945050505050919050565b60025481565b60006020528060005260406000206000915090508060000160009054906101000a900473ffffffffffffffffffffffffffffffffffffffff16908060010180546106e9906110a0565b80601f0160208091040260200160405190810160405280929190818152602001828054610715906110a0565b80156107625780601f1061073757610100808354040283529160200191610762565b820191906000526020600020905b81548152906001019060200180831161074557829003601f168201915b5050505050905082565b60008282905014156107b3576040517f08c379a00000000000000000000000000000000000000000000000000000000081526004016107aa90611257565b60405180910390fd5b6107bb610aa4565b82828080601f016020809104026020016040519081016040528093929190818152602001838380828437600081840152601f19601f82011690508083019250505050505050816020018190525033816000019073ffffffffffffffffffffffffffffffffffffffff16908173ffffffffffffffffffffffffffffffffffffffff1681525050806000803373ffffffffffffffffffffffffffffffffffffffff1673ffffffffffffffffffffffffffffffffffffffff16815260200190815260200160002060008201518160000160006101000a81548173ffffffffffffffffffffffffffffffffffffffff021916908373ffffffffffffffffffffffffffffffffffffffff16021790555060208201518160010190805190602001906108e2929190610a1e565b5060408201518160020190805190602001906108ff929190610adb565b50905050505050565b60016020528060005260406000206000915090508060000154908060010160009054906101000a900473ffffffffffffffffffffffffffffffffffffffff1690806002018054610957906110a0565b80601f0160208091040260200160405190810160405280929190818152602001828054610983906110a0565b80156109d05780601f106109a5576101008083540402835291602001916109d0565b820191906000526020600020905b8154815290600101906020018083116109b357829003601f168201915b5050505050908060030154905084565b604051806080016040528060008152602001600073ffffffffffffffffffffffffffffffffffffffff16815260200160608152602001600081525090565b828054610a2a906110a0565b90600052602060002090601f016020900481019282610a4c5760008555610a93565b82601f10610a6557805160ff1916838001178555610a93565b82800160010185558215610a93579182015b82811115610a92578251825591602001919060010190610a77565b5b509050610aa09190610b28565b5090565b6040518060600160405280600073ffffffffffffffffffffffffffffffffffffffff16815260200160608152602001606081525090565b828054828255906000526020600020908101928215610b17579160200282015b82811115610b16578251825591602001919060010190610afb565b5b509050610b249190610b28565b5090565b5b80821115610b41576000816000905550600101610b29565b5090565b600080fd5b600080fd5b600080fd5b600080fd5b600080fd5b60008083601f840112610b7457610b73610b4f565b5b8235905067ffffffffffffffff811115610b9157610b90610b54565b5b602083019150836001820283011115610bad57610bac610b59565b5b9250929050565b60008060208385031215610bcb57610bca610b45565b5b600083013567ffffffffffffffff811115610be957610be8610b4a565b5b610bf585828601610b5e565b92509250509250929050565b600073ffffffffffffffffffffffffffffffffffffffff82169050919050565b6000610c2c82610c01565b9050919050565b610c3c81610c21565b8114610c4757600080fd5b50565b600081359050610c5981610c33565b92915050565b600060208284031215610c7557610c74610b45565b5b6000610c8384828501610c4a565b91505092915050565b600081519050919050565b600082825260208201905092915050565b6000819050602082019050919050565b6000819050919050565b610ccb81610cb8565b82525050565b610cda81610c21565b82525050565b600081519050919050565b600082825260208201905092915050565b60005b83811015610d1a578082015181840152602081019050610cff565b83811115610d29576000848401525b50505050565b6000601f19601f8301169050919050565b6000610d4b82610ce0565b610d558185610ceb565b9350610d65818560208601610cfc565b610d6e81610d2f565b840191505092915050565b6000608083016000830151610d916000860182610cc2565b506020830151610da46020860182610cd1565b5060408301518482036040860152610dbc8282610d40565b9150506060830151610dd16060860182610cc2565b508091505092915050565b6000610de88383610d79565b905092915050565b6000602082019050919050565b6000610e0882610c8c565b610e128185610c97565b935083602082028501610e2485610ca8565b8060005b85811015610e605784840389528151610e418582610ddc565b9450610e4c83610df0565b925060208a01995050600181019050610e28565b50829750879550505050505092915050565b60006020820190508181036000830152610e8c8184610dfd565b905092915050565b610e9d81610cb8565b82525050565b6000602082019050610eb86000830184610e94565b92915050565b610ec781610c21565b82525050565b600082825260208201905092915050565b6000610ee982610ce0565b610ef38185610ecd565b9350610f03818560208601610cfc565b610f0c81610d2f565b840191505092915050565b6000604082019050610f2c6000830185610ebe565b8181036020830152610f3e8184610ede565b90509392505050565b610f5081610cb8565b8114610f5b57600080fd5b50565b600081359050610f6d81610f47565b92915050565b600060208284031215610f8957610f88610b45565b5b6000610f9784828501610f5e565b91505092915050565b6000608082019050610fb56000830187610e94565b610fc26020830186610ebe565b8181036040830152610fd48185610ede565b9050610fe36060830184610e94565b95945050505050565b7f4e487b7100000000000000000000000000000000000000000000000000000000600052601160045260246000fd5b600061102682610cb8565b915061103183610cb8565b9250827fffffffffffffffffffffffffffffffffffffffffffffffffffffffffffffffff0382111561106657611065610fec565b5b828201905092915050565b7f4e487b7100000000000000000000000000000000000000000000000000000000600052602260045260246000fd5b600060028204905060018216806110b857607f821691505b602082108114156110cc576110cb611071565b5b50919050565b7f546869732077616c6c657420646f6573206e6f742062656c6f6e6720746f206160008201527f6e79206163636f756e742e000000000000000000000000000000000000000000602082015250565b600061112e602b83610ecd565b9150611139826110d2565b604082019050919050565b6000602082019050818103600083015261115d81611121565b9050919050565b7f4e487b7100000000000000000000000000000000000000000000000000000000600052604160045260246000fd5b7f4e487b7100000000000000000000000000000000000000000000000000000000600052603260045260246000fd5b60006111cd82610cb8565b91507fffffffffffffffffffffffffffffffffffffffffffffffffffffffffffffffff821415611200576111ff610fec565b5b600182019050919050565b7f4e616d652063616e6e6f7420626520616e20656d70747920737472696e670000600082015250565b6000611241601e83610ecd565b915061124c8261120b565b602082019050919050565b6000602082019050818103600083015261127081611234565b905091905056fea2646970667358221220e9422edbf6ea01d34152631834c37a13abff6f42379536eb31442717f571a74364736f6c63430008090033",
  "linkReferences": {},
  "deployedLinkReferences": {}
}